:100000000C9434000C943E000C943E000C943E0082
:100010000C943E000C943E000C943E000C943E0068
:100020000C943E000C943E000C943E000C943E0058
:100030000C943E000C943E000C943E000C943E0048
:100040000C943E000C943E000C943E000C943E0038
:100050000C943E000C943E000C943E000C943E0028
:100060000C943E000C943E0011241FBECFEFD8E04C
:10007000DEBFCDBF0E9440000C946B000C940000CA
:10008000259A249A239A229A219A2D9A2A9A2FEF16
:100090008FE493EC215080409040E1F700C00000D5
:1000A0002D982C9A2FEF83ED90E3215080409040C3
:1000B000E1F700C000002C982A982B9A299A2FEF7C
:1000C0008FE493EC215080409040E1F700C00000A5
:0A00D0002B982998DACFF894FFCF9F
:00000001FF
