:100000000C9434000C9446000C9446000C9446006A
:100010000C9446000C9446000C9446000C94460048
:100020000C9446000C9446000C9446000C94460038
:100030000C9446000C9446000C9446000C94460028
:100040000C9446000C9446000C9446000C94460018
:100050000C9446000C9446000C9446000C94460008
:100060000C9446000C94460011241FBECFEFD8E03C
:10007000DEBFCDBF21E0A0E0B1E001C01D92A33002
:10008000B207E1F70E94E8000C9421010C940000F3
:10009000569A559A549A539A08955E985C985D9A28
:1000A0005B9A08955E9A5C9A5D985B9808955E9855
:1000B0005C9A5D9A5B9808955E9A5C985D985B9AED
:1000C00008955E985C985D985B9808951092C500BD
:1000D00087E68093C400E2ECF0E080818660808354
:1000E000E1ECF0E080818861808308959091C00008
:1000F00095FFFCCF8093C60008958091C00087FFD4
:10010000FCCF8091C6000895EAE7F0E08081876027
:100110008083ACE7B0E08C9180648C9380818068B0
:100120008083808180648083089590917C00907F9B
:1001300090937C0090917C00892B80937C0080912F
:100140007A00806480937A0080917A0086FDFCCFEB
:10015000809178009091790008950E9452002FEFCD
:1001600081EE94E0215080409040E1F700C0000013
:100170000C946100CF93DF9380E00E949500C0E073
:10018000D1E088830E9457002FEF81EE94E0215048
:1001900080409040E1F700C000000E94610080E0D4
:1001A0000E94950089830E945C002FEF83EC99E008
:1001B000215080409040E1F700C000000E946100A3
:1001C00080E00E9495008A83CE01DF91CF9108954F
:1001D0000E9466000E9448000E9484000E947D00E8
:1001E0008134C1F40E9457002FEF81EE94E021503A
:1001F00080409040E1F700C000000E9461000E9432
:10020000AD000E94BA0086E10E94760087E40E9459
:100210007600E4CF823479F0833481F40E945C006C
:100220002FEF81EE94E0215080409040E1F700C034
:1002300000000E9461000E94AD00D0CF843471F6AE
:060240000895F894FFCFC1
:00000001FF
