:100000000C9434000C943E000C943E000C943E0082
:100010000C943E000C943E000C943E000C943E0068
:100020000C943E000C943E000C943E000C943E0058
:100030000C943E000C943E000C943E000C943E0048
:100040000C943E000C943E000C943E000C943E0038
:100050000C943E000C943E000C943E000C943E0028
:100060000C943E000C943E0011241FBECFEFD8E04C
:10007000DEBFCDBF0E94E5000C9433010C9400005C
:10008000569A559A549A539A08955E985C985D9A38
:100090005B9A08955E9A5C9A5D985B9808955E9865
:1000A0005C9A5D9A5B9808955E9A5C985D985B9AFD
:1000B00008955E985C985D985B9808951092C500CD
:1000C00087E68093C400E2ECF0E080818660808364
:1000D000E1ECF0E080818861808308959091C00018
:1000E00095FFFCCF8093C60008958091C00087FFE4
:1000F000FCCF8091C6000895EAE7F0E08081876038
:100100008083ACE7B0E08C9180648C9380818068C0
:100110008083808180648083089590917C00907FAB
:1001200090937C0090917C00892B80937C0080913F
:100130007A00806480937A0080917A0086FDFCCFFB
:10014000809178009091790008950E944A002FEFE5
:1001500081EE94E0215080409040E1F700C0000023
:100160000C945900CF93DF9300D01F92CDB7DEB728
:1001700080E00E948D0089830E944F002FEF81EE66
:1001800094E0215080409040E1F700C000000E94C0
:10019000590080E00E948D008A830E9454002FEF56
:1001A00083EC99E0215080409040E1F700C00000CE
:1001B0000E94590080E00E948D00CE0101960F90B0
:1001C0000F900F90DF91CF910895CF93DF930E940E
:1001D0005E000E9440000E947C000E94B200EC0180
:1001E00088810E946E0089810E946E008A810E942F
:1001F0006E000E9475008134E1F40E944F002FEFE1
:1002000081EE94E0215080409040E1F700C0000072
:100210000E9459000E94A5000E94B200EC01888152
:100220000E946E0089810E946E008A810E946E0089
:10023000D4CF823479F0833481F40E9454002FEFBC
:1002400081EE94E0215080409040E1F700C0000032
:100250000E9459000E94A500C0CF843409F0BDCF90
:0A026000DF91CF910895F894FFCFCD
:00000001FF
