:100000000C9434000C943E000C943E000C943E0082
:100010000C943E000C943E000C943E000C943E0068
:100020000C943E000C943E000C943E000C943E0058
:100030000C943E000C943E000C943E000C943E0048
:100040000C943E000C943E000C943E000C943E0038
:100050000C943E000C943E000C943E000C943E0028
:100060000C943E000C943E0011241FBECFEFD8E04C
:10007000DEBFCDBF0E947C000C949F000C9400005A
:10008000569A559A549A539A08955E985C985D9A38
:100090005B9A08955E9A5C9A5D985B9808955E9865
:1000A0005C9A5D9A5B9808955E9A5C985D985B9AFD
:1000B00008955E985C985D985B9808951092C500CD
:1000C00087E68093C400E2ECF0E080818660808364
:1000D000E1ECF0E080818861808308959091C00018
:1000E00095FFFCCF8093C60008958091C00087FFE4
:1000F000FCCF8091C60008950E945E000E944000DF
:100100000E947500C82F813419F40E944A0013C060
:10011000823419F40E9445000EC0823519F40E9401
:10012000540009C08C3419F40E944F0004C0833578
:1001300011F40E9459008C2F0E946E00E1CFF894B8
:02014000FFCFEF
:00000001FF
